{"abi":[{"type":"function","name":"addPost","inputs":[{"name":"_post","type":"tuple","internalType":"struct Instagram.Post","components":[{"name":"description","type":"string","internalType":"string"},{"name":"uri","type":"string","internalType":"string"}]}],"outputs":[],"stateMutability":"nonpayable"},{"type":"function","name":"getAllPosts","inputs":[{"name":"_start","type":"uint256","internalType":"uint256"},{"name":"_end","type":"uint256","internalType":"uint256"}],"outputs":[{"name":"","type":"tuple[]","internalType":"struct Instagram.Post[]","components":[{"name":"description","type":"string","internalType":"string"},{"name":"uri","type":"string","internalType":"string"}]}],"stateMutability":"view"},{"type":"function","name":"getLikesOfPost","inputs":[{"name":"_postId","type":"uint256","internalType":"uint256"}],"outputs":[{"name":"","type":"uint256","internalType":"uint256"}],"stateMutability":"view"},{"type":"function","name":"getPost","inputs":[{"name":"_postId","type":"uint256","internalType":"uint256"}],"outputs":[{"name":"","type":"tuple","internalType":"struct Instagram.Post","components":[{"name":"description","type":"string","internalType":"string"},{"name":"uri","type":"string","internalType":"string"}]}],"stateMutability":"view"},{"type":"function","name":"getPostUser","inputs":[{"name":"_user","type":"address","internalType":"address"},{"name":"_postId","type":"uint256","internalType":"uint256"}],"outputs":[{"name":"","type":"tuple","internalType":"struct Instagram.Post","components":[{"name":"description","type":"string","internalType":"string"},{"name":"uri","type":"string","internalType":"string"}]}],"stateMutability":"view"},{"type":"function","name":"getPostsCounterByUser","inputs":[{"name":"_user","type":"address","internalType":"address"}],"outputs":[{"name":"","type":"uint256","internalType":"uint256"}],"stateMutability":"view"},{"type":"function","name":"getUri","inputs":[{"name":"_postId","type":"uint256","internalType":"uint256"}],"outputs":[{"name":"","type":"string","internalType":"string"}],"stateMutability":"view"},{"type":"function","name":"like","inputs":[{"name":"_postId","type":"uint256","internalType":"uint256"}],"outputs":[],"stateMutability":"nonpayable"},{"type":"function","name":"s_postCounterId","inputs":[],"outputs":[{"name":"","type":"uint256","internalType":"uint256"}],"stateMutability":"view"},{"type":"function","name":"unlike","inputs":[{"name":"_postId","type":"uint256","internalType":"uint256"}],"outputs":[],"stateMutability":"nonpayable"},{"type":"event","name":"Like","inputs":[{"name":"postId","type":"uint256","indexed":true,"internalType":"uint256"},{"name":"user","type":"address","indexed":false,"internalType":"address"}],"anonymous":false},{"type":"event","name":"PostAdded","inputs":[{"name":"postId","type":"uint256","indexed":true,"internalType":"uint256"},{"name":"description","type":"string","indexed":false,"internalType":"string"},{"name":"owner","type":"address","indexed":false,"internalType":"address"}],"anonymous":false},{"type":"event","name":"Unlike","inputs":[{"name":"postId","type":"uint256","indexed":true,"internalType":"uint256"},{"name":"user","type":"address","indexed":false,"internalType":"address"}],"anonymous":false},{"type":"error","name":"PostDoesNotExist","inputs":[{"name":"postId","type":"uint256","internalType":"uint256"}]}],"bytecode":{"object":"0x6080604052348015600f57600080fd5b506119e58061001f6000396000f3fe608060405234801561001057600080fd5b506004361061009e5760003560e01c806377f47e861161006657806377f47e861461017f57806382cfb2701461019b5780639be69d6c146101b9578063da0544aa146101e9578063e82935da146102195761009e565b80631fcda535146100a35780632895a7d8146100d357806340731c241461010357806374d21ae0146101335780637519995e1461014f575b600080fd5b6100bd60048036038101906100b89190610efa565b610235565b6040516100ca9190610f40565b60405180910390f35b6100ed60048036038101906100e89190610f87565b61027e565b6040516100fa919061115d565b60405180910390f35b61011d6004803603810190610118919061117f565b610483565b60405161012a91906111f0565b60405180910390f35b61014d6004803603810190610148919061117f565b610628565b005b61016960048036038101906101649190611212565b610856565b60405161017691906111f0565b60405180910390f35b61019960048036038101906101949190611419565b610a39565b005b6101a3610bf5565b6040516101b09190610f40565b60405180910390f35b6101d360048036038101906101ce919061117f565b610bfb565b6040516101e09190610f40565b60405180910390f35b61020360048036038101906101fe919061117f565b610c6f565b60405161021091906114ac565b60405180910390f35b610233600480360381019061022e919061117f565b610d6b565b005b6000600360008373ffffffffffffffffffffffffffffffffffffffff1673ffffffffffffffffffffffffffffffffffffffff168152602001908152602001600020549050919050565b606060006001848461029091906114fd565b61029a9190611531565b905060008167ffffffffffffffff8111156102b8576102b7611257565b5b6040519080825280602002602001820160405280156102f157816020015b6102de610e6e565b8152602001906001900390816102d65790505b50905060005b828110156104775760016000828861030f9190611531565b815260200190815260200160002060405180604001604052908160008201805461033890611594565b80601f016020809104026020016040519081016040528092919081815260200182805461036490611594565b80156103b15780601f10610386576101008083540402835291602001916103b1565b820191906000526020600020905b81548152906001019060200180831161039457829003601f168201915b505050505081526020016001820180546103ca90611594565b80601f01602080910402602001604051908101604052809291908181526020018280546103f690611594565b80156104435780601f1061041857610100808354040283529160200191610443565b820191906000526020600020905b81548152906001019060200180831161042657829003601f168201915b50505050508152505082828151811061045f5761045e6115c5565b5b602002602001018190525080806001019150506102f7565b50809250505092915050565b61048b610e6e565b8160005481118061049c5750600081145b156104de57806040517f018ef78a0000000000000000000000000000000000000000000000000000000081526004016104d59190610f40565b60405180910390fd5b6001600084815260200190815260200160002060405180604001604052908160008201805461050c90611594565b80601f016020809104026020016040519081016040528092919081815260200182805461053890611594565b80156105855780601f1061055a57610100808354040283529160200191610585565b820191906000526020600020905b81548152906001019060200180831161056857829003601f168201915b5050505050815260200160018201805461059e90611594565b80601f01602080910402602001604051908101604052809291908181526020018280546105ca90611594565b80156106175780601f106105ec57610100808354040283529160200191610617565b820191906000526020600020905b8154815290600101906020018083116105fa57829003601f168201915b505050505081525050915050919050565b806000548111806106395750600081145b1561067b57806040517f018ef78a0000000000000000000000000000000000000000000000000000000081526004016106729190610f40565b60405180910390fd5b600060046000848152602001908152602001600020905060005b8180549050811015610818573373ffffffffffffffffffffffffffffffffffffffff168282815481106106cb576106ca6115c5565b5b9060005260206000200160009054906101000a900473ffffffffffffffffffffffffffffffffffffffff1673ffffffffffffffffffffffffffffffffffffffff160361080b576000826001848054905061072591906114fd565b81548110610736576107356115c5565b5b9060005260206000200160009054906101000a900473ffffffffffffffffffffffffffffffffffffffff16905080838381548110610777576107766115c5565b5b9060005260206000200160006101000a81548173ffffffffffffffffffffffffffffffffffffffff021916908373ffffffffffffffffffffffffffffffffffffffff160217905550828054806107d0576107cf6115f4565b5b6001900381819060005260206000200160006101000a81549073ffffffffffffffffffffffffffffffffffffffff0219169055905550610818565b8080600101915050610695565b50827f59b64a402d5e7d57bd1da203ec10442e896570cfc641d11b1eb0d71a71469c14336040516108499190611632565b60405180910390a2505050565b61085e610e6e565b8160005481118061086f5750600081145b156108b157806040517f018ef78a0000000000000000000000000000000000000000000000000000000081526004016108a89190610f40565b60405180910390fd5b600260008573ffffffffffffffffffffffffffffffffffffffff1673ffffffffffffffffffffffffffffffffffffffff168152602001908152602001600020600084815260200190815260200160002060405180604001604052908160008201805461091c90611594565b80601f016020809104026020016040519081016040528092919081815260200182805461094890611594565b80156109955780601f1061096a57610100808354040283529160200191610995565b820191906000526020600020905b81548152906001019060200180831161097857829003601f168201915b505050505081526020016001820180546109ae90611594565b80601f01602080910402602001604051908101604052809291908181526020018280546109da90611594565b8015610a275780601f106109fc57610100808354040283529160200191610a27565b820191906000526020600020905b815481529060010190602001808311610a0a57829003601f168201915b50505050508152505091505092915050565b600081602001515111610a81576040517f08c379a0000000000000000000000000000000000000000000000000000000008152600401610a7890611699565b60405180910390fd5b600080815480929190610a93906116b9565b91905055508060016000805481526020019081526020016000206000820151816000019081610ac291906118ad565b506020820151816001019081610ad891906118ad565b5090505080600260003373ffffffffffffffffffffffffffffffffffffffff1673ffffffffffffffffffffffffffffffffffffffff1681526020019081526020016000206000805481526020019081526020016000206000820151816000019081610b4391906118ad565b506020820151816001019081610b5991906118ad565b50905050600360003373ffffffffffffffffffffffffffffffffffffffff1673ffffffffffffffffffffffffffffffffffffffff1681526020019081526020016000206000815480929190610bad906116b9565b91905055506000547f04252f9458f5e6a7ca08253452fa6b47ae7e4e41f3638def7f399e2e3dd64c79826000015133604051610bea92919061197f565b60405180910390a250565b60005481565b600081600054811180610c0e5750600081145b15610c5057806040517f018ef78a000000000000000000000000000000000000000000000000000000008152600401610c479190610f40565b60405180910390fd5b6004600084815260200190815260200160002080549050915050919050565b606081600054811180610c825750600081145b15610cc457806040517f018ef78a000000000000000000000000000000000000000000000000000000008152600401610cbb9190610f40565b60405180910390fd5b600160008481526020019081526020016000206001018054610ce590611594565b80601f0160208091040260200160405190810160405280929190818152602001828054610d1190611594565b8015610d5e5780601f10610d3357610100808354040283529160200191610d5e565b820191906000526020600020905b815481529060010190602001808311610d4157829003601f168201915b5050505050915050919050565b80600054811180610d7c5750600081145b15610dbe57806040517f018ef78a000000000000000000000000000000000000000000000000000000008152600401610db59190610f40565b60405180910390fd5b60046000838152602001908152602001600020339080600181540180825580915050600190039060005260206000200160009091909190916101000a81548173ffffffffffffffffffffffffffffffffffffffff021916908373ffffffffffffffffffffffffffffffffffffffff160217905550817fda935a3772736202dd12b1bc54cb3460939e447d95d5648c6dbd89836121823a33604051610e629190611632565b60405180910390a25050565b604051806040016040528060608152602001606081525090565b6000604051905090565b600080fd5b600080fd5b600073ffffffffffffffffffffffffffffffffffffffff82169050919050565b6000610ec782610e9c565b9050919050565b610ed781610ebc565b8114610ee257600080fd5b50565b600081359050610ef481610ece565b92915050565b600060208284031215610f1057610f0f610e92565b5b6000610f1e84828501610ee5565b91505092915050565b6000819050919050565b610f3a81610f27565b82525050565b6000602082019050610f556000830184610f31565b92915050565b610f6481610f27565b8114610f6f57600080fd5b50565b600081359050610f8181610f5b565b92915050565b60008060408385031215610f9e57610f9d610e92565b5b6000610fac85828601610f72565b9250506020610fbd85828601610f72565b9150509250929050565b600081519050919050565b600082825260208201905092915050565b6000819050602082019050919050565b600081519050919050565b600082825260208201905092915050565b60005b8381101561102d578082015181840152602081019050611012565b60008484015250505050565b6000601f19601f8301169050919050565b600061105582610ff3565b61105f8185610ffe565b935061106f81856020860161100f565b61107881611039565b840191505092915050565b600060408301600083015184820360008601526110a0828261104a565b915050602083015184820360208601526110ba828261104a565b9150508091505092915050565b60006110d38383611083565b905092915050565b6000602082019050919050565b60006110f382610fc7565b6110fd8185610fd2565b93508360208202850161110f85610fe3565b8060005b8581101561114b578484038952815161112c85826110c7565b9450611137836110db565b925060208a01995050600181019050611113565b50829750879550505050505092915050565b6000602082019050818103600083015261117781846110e8565b905092915050565b60006020828403121561119557611194610e92565b5b60006111a384828501610f72565b91505092915050565b600060408301600083015184820360008601526111c9828261104a565b915050602083015184820360208601526111e3828261104a565b9150508091505092915050565b6000602082019050818103600083015261120a81846111ac565b905092915050565b6000806040838503121561122957611228610e92565b5b600061123785828601610ee5565b925050602061124885828601610f72565b9150509250929050565b600080fd5b7f4e487b7100000000000000000000000000000000000000000000000000000000600052604160045260246000fd5b61128f82611039565b810181811067ffffffffffffffff821117156112ae576112ad611257565b5b80604052505050565b60006112c1610e88565b90506112cd8282611286565b919050565b600080fd5b600080fd5b600080fd5b600067ffffffffffffffff8211156112fc576112fb611257565b5b61130582611039565b9050602081019050919050565b82818337600083830152505050565b600061133461132f846112e1565b6112b7565b9050828152602081018484840111156113505761134f6112dc565b5b61135b848285611312565b509392505050565b600082601f830112611378576113776112d7565b5b8135611388848260208601611321565b91505092915050565b6000604082840312156113a7576113a6611252565b5b6113b160406112b7565b9050600082013567ffffffffffffffff8111156113d1576113d06112d2565b5b6113dd84828501611363565b600083015250602082013567ffffffffffffffff811115611401576114006112d2565b5b61140d84828501611363565b60208301525092915050565b60006020828403121561142f5761142e610e92565b5b600082013567ffffffffffffffff81111561144d5761144c610e97565b5b61145984828501611391565b91505092915050565b600082825260208201905092915050565b600061147e82610ff3565b6114888185611462565b935061149881856020860161100f565b6114a181611039565b840191505092915050565b600060208201905081810360008301526114c68184611473565b905092915050565b7f4e487b7100000000000000000000000000000000000000000000000000000000600052601160045260246000fd5b600061150882610f27565b915061151383610f27565b925082820390508181111561152b5761152a6114ce565b5b92915050565b600061153c82610f27565b915061154783610f27565b925082820190508082111561155f5761155e6114ce565b5b92915050565b7f4e487b7100000000000000000000000000000000000000000000000000000000600052602260045260246000fd5b600060028204905060018216806115ac57607f821691505b6020821081036115bf576115be611565565b5b50919050565b7f4e487b7100000000000000000000000000000000000000000000000000000000600052603260045260246000fd5b7f4e487b7100000000000000000000000000000000000000000000000000000000600052603160045260246000fd5b61162c81610ebc565b82525050565b60006020820190506116476000830184611623565b92915050565b7f5572692063616e277420626520656d7074790000000000000000000000000000600082015250565b6000611683601283611462565b915061168e8261164d565b602082019050919050565b600060208201905081810360008301526116b281611676565b9050919050565b60006116c482610f27565b91507fffffffffffffffffffffffffffffffffffffffffffffffffffffffffffffffff82036116f6576116f56114ce565b5b600182019050919050565b60008190508160005260206000209050919050565b60006020601f8301049050919050565b600082821b905092915050565b6000600883026117637fffffffffffffffffffffffffffffffffffffffffffffffffffffffffffffffff82611726565b61176d8683611726565b95508019841693508086168417925050509392505050565b6000819050919050565b60006117aa6117a56117a084610f27565b611785565b610f27565b9050919050565b6000819050919050565b6117c48361178f565b6117d86117d0826117b1565b848454611733565b825550505050565b600090565b6117ed6117e0565b6117f88184846117bb565b505050565b5b8181101561181c576118116000826117e5565b6001810190506117fe565b5050565b601f8211156118615761183281611701565b61183b84611716565b8101602085101561184a578190505b61185e61185685611716565b8301826117fd565b50505b505050565b600082821c905092915050565b600061188460001984600802611866565b1980831691505092915050565b600061189d8383611873565b9150826002028217905092915050565b6118b682610ff3565b67ffffffffffffffff8111156118cf576118ce611257565b5b6118d98254611594565b6118e4828285611820565b600060209050601f8311600181146119175760008415611905578287015190505b61190f8582611891565b865550611977565b601f19841661192586611701565b60005b8281101561194d57848901518255600182019150602085019450602081019050611928565b8683101561196a5784890151611966601f891682611873565b8355505b6001600288020188555050505b505050505050565b600060408201905081810360008301526119998185611473565b90506119a86020830184611623565b939250505056fea2646970667358221220b8d1657346675f4eb890e798d98848c8a1ca5b65f1e614615f436f58de8ce93764736f6c634300081a0033","linkReferences":{}},"methodIdentifiers":{"addPost((string,string))":"77f47e86","getAllPosts(uint256,uint256)":"2895a7d8","getLikesOfPost(uint256)":"9be69d6c","getPost(uint256)":"40731c24","getPostUser(address,uint256)":"7519995e","getPostsCounterByUser(address)":"1fcda535","getUri(uint256)":"da0544aa","like(uint256)":"e82935da","s_postCounterId()":"82cfb270","unlike(uint256)":"74d21ae0"},"id":0}