{"abi":[{"type":"function","name":"addPost","inputs":[{"name":"_post","type":"tuple","internalType":"struct Instagram.Post","components":[{"name":"description","type":"string","internalType":"string"},{"name":"uri","type":"string","internalType":"string"}]}],"outputs":[],"stateMutability":"nonpayable"},{"type":"function","name":"getAllPost","inputs":[{"name":"_start","type":"uint256","internalType":"uint256"},{"name":"_end","type":"uint256","internalType":"uint256"}],"outputs":[{"name":"","type":"tuple[]","internalType":"struct Instagram.Post[]","components":[{"name":"description","type":"string","internalType":"string"},{"name":"uri","type":"string","internalType":"string"}]}],"stateMutability":"view"},{"type":"function","name":"getLikesOfPost","inputs":[{"name":"_postId","type":"uint256","internalType":"uint256"}],"outputs":[{"name":"","type":"uint256","internalType":"uint256"}],"stateMutability":"view"},{"type":"function","name":"getPost","inputs":[{"name":"_postId","type":"uint256","internalType":"uint256"}],"outputs":[{"name":"","type":"tuple","internalType":"struct Instagram.Post","components":[{"name":"description","type":"string","internalType":"string"},{"name":"uri","type":"string","internalType":"string"}]}],"stateMutability":"view"},{"type":"function","name":"getPostUser","inputs":[{"name":"_user","type":"address","internalType":"address"},{"name":"_postId","type":"uint256","internalType":"uint256"}],"outputs":[{"name":"","type":"tuple","internalType":"struct Instagram.Post","components":[{"name":"description","type":"string","internalType":"string"},{"name":"uri","type":"string","internalType":"string"}]}],"stateMutability":"view"},{"type":"function","name":"getPostsCounterByUser","inputs":[{"name":"_user","type":"address","internalType":"address"}],"outputs":[{"name":"","type":"uint256","internalType":"uint256"}],"stateMutability":"view"},{"type":"function","name":"getUri","inputs":[{"name":"_postId","type":"uint256","internalType":"uint256"}],"outputs":[{"name":"","type":"string","internalType":"string"}],"stateMutability":"view"},{"type":"function","name":"like","inputs":[{"name":"_postId","type":"uint256","internalType":"uint256"}],"outputs":[],"stateMutability":"nonpayable"},{"type":"function","name":"s_postCounterId","inputs":[],"outputs":[{"name":"","type":"uint256","internalType":"uint256"}],"stateMutability":"view"},{"type":"function","name":"unlike","inputs":[{"name":"_postId","type":"uint256","internalType":"uint256"}],"outputs":[],"stateMutability":"nonpayable"},{"type":"event","name":"Like","inputs":[{"name":"_postId","type":"uint256","indexed":true,"internalType":"uint256"},{"name":"user","type":"address","indexed":false,"internalType":"address"}],"anonymous":false},{"type":"event","name":"PostAdded","inputs":[{"name":"_postId","type":"uint256","indexed":true,"internalType":"uint256"},{"name":"description","type":"string","indexed":false,"internalType":"string"},{"name":"owner","type":"address","indexed":false,"internalType":"address"}],"anonymous":false},{"type":"event","name":"Unlike","inputs":[{"name":"_postId","type":"uint256","indexed":true,"internalType":"uint256"},{"name":"user","type":"address","indexed":false,"internalType":"address"}],"anonymous":false},{"type":"error","name":"PostDoesNotExist","inputs":[{"name":"","type":"uint256","internalType":"uint256"}]}],"bytecode":{"object":"0x6080604052348015600f57600080fd5b506110738061001f6000396000f3fe608060405234801561001057600080fd5b506004361061009e5760003560e01c806377f47e861161006657806377f47e861461014757806382cfb2701461015a5780639be69d6c14610163578063da0544aa14610176578063e82935da1461019657600080fd5b80631fcda535146100a357806340731c24146100df5780636f0487ca146100ff57806374d21ae01461011f5780637519995e14610134575b600080fd5b6100cc6100b1366004610b61565b6001600160a01b031660009081526003602052604090205490565b6040519081526020015b60405180910390f35b6100f26100ed366004610b83565b6101a9565b6040516100d69190610c19565b61011261010d366004610c2c565b610335565b6040516100d69190610c4e565b61013261012d366004610b83565b610539565b005b6100f2610142366004610cb3565b6106b6565b610132610155366004610d82565b610852565b6100cc60005481565b6100cc610171366004610b83565b610991565b610189610184366004610b83565b6109d6565b6040516100d69190610e3d565b6101326101a4366004610b83565b610aaa565b6040805180820190915260608082526020820152816000548111806101cc575080155b156101f15760405162c77bc560e11b8152600481018290526024015b60405180910390fd5b60008381526001602052604090819020815180830190925280548290829061021890610e50565b80601f016020809104026020016040519081016040528092919081815260200182805461024490610e50565b80156102915780601f1061026657610100808354040283529160200191610291565b820191906000526020600020905b81548152906001019060200180831161027457829003601f168201915b505050505081526020016001820180546102aa90610e50565b80601f01602080910402602001604051908101604052809291908181526020018280546102d690610e50565b80156103235780601f106102f857610100808354040283529160200191610323565b820191906000526020600020905b81548152906001019060200180831161030657829003601f168201915b50505050508152505091505b50919050565b606060006103438484610e9a565b61034e906001610ead565b905060008167ffffffffffffffff81111561036b5761036b610cdd565b6040519080825280602002602001820160405280156103b057816020015b60408051808201909152606080825260208201528152602001906001900390816103895790505b50905060005b8281101561052e57600160006103cc8389610ead565b81526020019081526020016000206040518060400160405290816000820180546103f590610e50565b80601f016020809104026020016040519081016040528092919081815260200182805461042190610e50565b801561046e5780601f106104435761010080835404028352916020019161046e565b820191906000526020600020905b81548152906001019060200180831161045157829003601f168201915b5050505050815260200160018201805461048790610e50565b80601f01602080910402602001604051908101604052809291908181526020018280546104b390610e50565b80156105005780601f106104d557610100808354040283529160200191610500565b820191906000526020600020905b8154815290600101906020018083116104e357829003601f168201915b50505050508152505082828151811061051b5761051b610ec0565b60209081029190910101526001016103b6565b509150505b92915050565b80600054811180610548575080155b156105685760405162c77bc560e11b8152600481018290526024016101e8565b6000828152600460205260408120905b815481101561067b57336001600160a01b031682828154811061059d5761059d610ec0565b6000918252602090912001546001600160a01b03160361067357815460009083906105ca90600190610e9a565b815481106105da576105da610ec0565b9060005260206000200160009054906101000a90046001600160a01b031690508083838154811061060d5761060d610ec0565b9060005260206000200160006101000a8154816001600160a01b0302191690836001600160a01b031602179055508280548061064b5761064b610ed6565b600082815260209020810160001990810180546001600160a01b03191690550190555061067b565b600101610578565b5060405133815283907f59b64a402d5e7d57bd1da203ec10442e896570cfc641d11b1eb0d71a71469c149060200160405180910390a2505050565b6040805180820190915260608082526020820152816000548111806106d9575080155b156106f95760405162c77bc560e11b8152600481018290526024016101e8565b6001600160a01b038416600090815260026020908152604080832086845290915290819020815180830190925280548290829061073590610e50565b80601f016020809104026020016040519081016040528092919081815260200182805461076190610e50565b80156107ae5780601f10610783576101008083540402835291602001916107ae565b820191906000526020600020905b81548152906001019060200180831161079157829003601f168201915b505050505081526020016001820180546107c790610e50565b80601f01602080910402602001604051908101604052809291908181526020018280546107f390610e50565b80156108405780601f1061081557610100808354040283529160200191610840565b820191906000526020600020905b81548152906001019060200180831161082357829003601f168201915b50505050508152505091505092915050565b60008160200151511161089c5760405162461bcd60e51b81526020600482015260126024820152715572692063616e277420626520656d70747960701b60448201526064016101e8565b6000805490806108ab83610eec565b9091555050600080548152600160205260409020815182919081906108d09082610f54565b50602082015160018201906108e59082610f54565b5050336000908152600360205260408120805492509061090483610eec565b9091555050336000908152600260209081526040808320835484529091529020815182919081906109359082610f54565b506020820151600182019061094a9082610f54565b509050506000547f04252f9458f5e6a7ca08253452fa6b47ae7e4e41f3638def7f399e2e3dd64c79826000015133604051610986929190611013565b60405180910390a250565b6000816000548111806109a2575080155b156109c25760405162c77bc560e11b8152600481018290526024016101e8565b505060009081526004602052604090205490565b6060816000548111806109e7575080155b15610a075760405162c77bc560e11b8152600481018290526024016101e8565b6000838152600160208190526040909120018054610a2490610e50565b80601f0160208091040260200160405190810160405280929190818152602001828054610a5090610e50565b8015610a9d5780601f10610a7257610100808354040283529160200191610a9d565b820191906000526020600020905b815481529060010190602001808311610a8057829003601f168201915b5050505050915050919050565b80600054811180610ab9575080155b15610ad95760405162c77bc560e11b8152600481018290526024016101e8565b600082815260046020908152604080832080546001810182559084529282902090920180546001600160a01b03191633908117909155915191825283917fda935a3772736202dd12b1bc54cb3460939e447d95d5648c6dbd89836121823a910160405180910390a25050565b80356001600160a01b0381168114610b5c57600080fd5b919050565b600060208284031215610b7357600080fd5b610b7c82610b45565b9392505050565b600060208284031215610b9557600080fd5b5035919050565b6000815180845260005b81811015610bc257602081850181015186830182015201610ba6565b506000602082860101526020601f19601f83011685010191505092915050565b6000815160408452610bf76040850182610b9c565b905060208301518482036020860152610c108282610b9c565b95945050505050565b602081526000610b7c6020830184610be2565b60008060408385031215610c3f57600080fd5b50508035926020909101359150565b6000602082016020835280845180835260408501915060408160051b86010192506020860160005b82811015610ca757603f19878603018452610c92858351610be2565b94506020938401939190910190600101610c76565b50929695505050505050565b60008060408385031215610cc657600080fd5b610ccf83610b45565b946020939093013593505050565b634e487b7160e01b600052604160045260246000fd5b600082601f830112610d0457600080fd5b813567ffffffffffffffff811115610d1e57610d1e610cdd565b604051601f8201601f19908116603f0116810167ffffffffffffffff81118282101715610d4d57610d4d610cdd565b604052818152838201602001851015610d6557600080fd5b816020850160208301376000918101602001919091529392505050565b600060208284031215610d9457600080fd5b813567ffffffffffffffff811115610dab57600080fd5b820160408185031215610dbd57600080fd5b6040805190810167ffffffffffffffff81118282101715610de057610de0610cdd565b604052813567ffffffffffffffff811115610dfa57600080fd5b610e0686828501610cf3565b825250602082013567ffffffffffffffff811115610e2357600080fd5b610e2f86828501610cf3565b602083015250949350505050565b602081526000610b7c6020830184610b9c565b600181811c90821680610e6457607f821691505b60208210810361032f57634e487b7160e01b600052602260045260246000fd5b634e487b7160e01b600052601160045260246000fd5b8181038181111561053357610533610e84565b8082018082111561053357610533610e84565b634e487b7160e01b600052603260045260246000fd5b634e487b7160e01b600052603160045260246000fd5b600060018201610efe57610efe610e84565b5060010190565b601f821115610f4f57806000526020600020601f840160051c81016020851015610f2c5750805b601f840160051c820191505b81811015610f4c5760008155600101610f38565b50505b505050565b815167ffffffffffffffff811115610f6e57610f6e610cdd565b610f8281610f7c8454610e50565b84610f05565b6020601f821160018114610fb65760008315610f9e5750848201515b600019600385901b1c1916600184901b178455610f4c565b600084815260208120601f198516915b82811015610fe65787850151825560209485019460019092019101610fc6565b50848210156110045786840151600019600387901b60f8161c191681555b50505050600190811b01905550565b6040815260006110266040830185610b9c565b905060018060a01b0383166020830152939250505056fea2646970667358221220dc808c8d528f989d87ba42318ca2ee354863541c63431b2c22eb8373262fe4b664736f6c634300081a0033","linkReferences":{}},"methodIdentifiers":{"addPost((string,string))":"77f47e86","getAllPost(uint256,uint256)":"6f0487ca","getLikesOfPost(uint256)":"9be69d6c","getPost(uint256)":"40731c24","getPostUser(address,uint256)":"7519995e","getPostsCounterByUser(address)":"1fcda535","getUri(uint256)":"da0544aa","like(uint256)":"e82935da","s_postCounterId()":"82cfb270","unlike(uint256)":"74d21ae0"},"id":0}